{
  "contractName": "PokerGame",
  "abi": [
    {
      "inputs": [],
      "payable": false,
      "stateMutability": "nonpayable",
      "type": "constructor"
    },
    {
      "anonymous": false,
      "inputs": [
        {
          "indexed": false,
          "internalType": "address",
          "name": "player",
          "type": "address"
        },
        {
          "indexed": false,
          "internalType": "address",
          "name": "dealer",
          "type": "address"
        },
        {
          "indexed": false,
          "internalType": "uint256",
          "name": "playerCard",
          "type": "uint256"
        },
        {
          "indexed": false,
          "internalType": "uint256",
          "name": "dealerCard",
          "type": "uint256"
        },
        {
          "indexed": false,
          "internalType": "uint256[]",
          "name": "cards",
          "type": "uint256[]"
        },
        {
          "indexed": false,
          "internalType": "string",
          "name": "big_or_small",
          "type": "string"
        },
        {
          "indexed": false,
          "internalType": "string",
          "name": "result",
          "type": "string"
        }
      ],
      "name": "NewGame",
      "type": "event"
    },
    {
      "constant": true,
      "inputs": [],
      "name": "owner",
      "outputs": [
        {
          "internalType": "address",
          "name": "",
          "type": "address"
        }
      ],
      "payable": false,
      "stateMutability": "view",
      "type": "function"
    },
    {
      "constant": false,
      "inputs": [
        {
          "internalType": "uint256",
          "name": "money",
          "type": "uint256"
        }
      ],
      "name": "newOwner",
      "outputs": [],
      "payable": true,
      "stateMutability": "payable",
      "type": "function"
    },
    {
      "constant": false,
      "inputs": [
        {
          "internalType": "address payable",
          "name": "ownerAccount",
          "type": "address"
        }
      ],
      "name": "retireOwner",
      "outputs": [],
      "payable": true,
      "stateMutability": "payable",
      "type": "function"
    },
    {
      "constant": true,
      "inputs": [],
      "name": "getGameStatus",
      "outputs": [
        {
          "internalType": "bool",
          "name": "",
          "type": "bool"
        }
      ],
      "payable": false,
      "stateMutability": "view",
      "type": "function"
    },
    {
      "constant": true,
      "inputs": [],
      "name": "getOwner",
      "outputs": [
        {
          "internalType": "address",
          "name": "",
          "type": "address"
        }
      ],
      "payable": false,
      "stateMutability": "view",
      "type": "function"
    },
    {
      "constant": true,
      "inputs": [],
      "name": "getEarning",
      "outputs": [
        {
          "internalType": "int256",
          "name": "",
          "type": "int256"
        }
      ],
      "payable": false,
      "stateMutability": "view",
      "type": "function"
    },
    {
      "constant": true,
      "inputs": [],
      "name": "getOwnerBalance",
      "outputs": [
        {
          "internalType": "uint256",
          "name": "",
          "type": "uint256"
        }
      ],
      "payable": false,
      "stateMutability": "view",
      "type": "function"
    },
    {
      "constant": false,
      "inputs": [
        {
          "internalType": "uint256",
          "name": "betAmount",
          "type": "uint256"
        },
        {
          "internalType": "bool",
          "name": "big_or_small",
          "type": "bool"
        },
        {
          "internalType": "address payable",
          "name": "playerAccount",
          "type": "address"
        }
      ],
      "name": "play",
      "outputs": [
        {
          "internalType": "uint256",
          "name": "playerCard",
          "type": "uint256"
        },
        {
          "internalType": "uint256",
          "name": "dealerCard",
          "type": "uint256"
        },
        {
          "internalType": "string",
          "name": "result",
          "type": "string"
        }
      ],
      "payable": true,
      "stateMutability": "payable",
      "type": "function"
    }
  ],
  "bytecode": "0x6080604052600060045534801561001557600080fd5b5060008060006101000a81548173ffffffffffffffffffffffffffffffffffffffff021916908373ffffffffffffffffffffffffffffffffffffffff1602179055506000600260006101000a81548160ff021916908315150217905550600060018190555061008861009360201b60201c565b6004819055506100da565b60006001430340426004546040516020018084815260200183815260200182815260200193505050506040516020818303038152906040528051906020012060001c905090565b611288806100e96000396000f3fe60806040526004361061007b5760003560e01c8063893d20e81161004e578063893d20e8146101335780638da5cb5b1461018a578063bb6d00fe146101e1578063c6245c20146102c25761007b565b8063322df20814610080578063382396ee146100ab578063590791f2146100da5780637e1c06b614610105575b600080fd5b34801561008c57600080fd5b50610095610306565b6040518082815260200191505060405180910390f35b3480156100b757600080fd5b506100c0610473565b604051808215151515815260200191505060405180910390f35b3480156100e657600080fd5b506100ef61048a565b6040518082815260200191505060405180910390f35b6101316004803603602081101561011b57600080fd5b8101908080359060200190929190505050610525565b005b34801561013f57600080fd5b50610148610683565b604051808273ffffffffffffffffffffffffffffffffffffffff1673ffffffffffffffffffffffffffffffffffffffff16815260200191505060405180910390f35b34801561019657600080fd5b5061019f61072e565b604051808273ffffffffffffffffffffffffffffffffffffffff1673ffffffffffffffffffffffffffffffffffffffff16815260200191505060405180910390f35b610239600480360360608110156101f757600080fd5b8101908080359060200190929190803515159060200190929190803573ffffffffffffffffffffffffffffffffffffffff169060200190929190505050610753565b6040518084815260200183815260200180602001828103825283818151815260200191508051906020019080838360005b8381101561028557808201518184015260208101905061026a565b50505050905090810190601f1680156102b25780820380516001836020036101000a031916815260200191505b5094505050505060405180910390f35b610304600480360360208110156102d857600080fd5b81019080803573ffffffffffffffffffffffffffffffffffffffff169060200190929190505050610db1565b005b6000600260009054906101000a900460ff1661038a576040517f08c379a00000000000000000000000000000000000000000000000000000000081526004018080602001828103825260128152602001807f47616d6520646f65736e2774206578697374000000000000000000000000000081525060200191505060405180910390fd5b6000809054906101000a900473ffffffffffffffffffffffffffffffffffffffff1673ffffffffffffffffffffffffffffffffffffffff163373ffffffffffffffffffffffffffffffffffffffff161461044c576040517f08c379a000000000000000000000000000000000000000000000000000000000815260040180806020018281038252601a8152602001807f4f6e6c79206f776e65722063616e20676574206561726e696e6700000000000081525060200191505060405180910390fd5b6000670de0b6b3a7640000478161045f57fe5b049050600060015490508082039250505090565b6000600260009054906101000a900460ff16905090565b6000600260009054906101000a900460ff1661050e576040517f08c379a00000000000000000000000000000000000000000000000000000000081526004018080602001828103825260128152602001807f47616d6520646f65736e2774206578697374000000000000000000000000000081525060200191505060405180910390fd5b670de0b6b3a7640000478161051f57fe5b04905090565b600260009054906101000a900460ff16156105a8576040517f08c379a00000000000000000000000000000000000000000000000000000000081526004018080602001828103825260138152602001807f47616d6520616c7265616479206578697374730000000000000000000000000081525060200191505060405180910390fd5b6000811161061e576040517f08c379a000000000000000000000000000000000000000000000000000000000815260040180806020018281038252601c8152602001807f4d6f6e6579206d7573742062652067726561746572207468616e20300000000081525060200191505060405180910390fd5b336000806101000a81548173ffffffffffffffffffffffffffffffffffffffff021916908373ffffffffffffffffffffffffffffffffffffffff160217905550806001819055506001600260006101000a81548160ff02191690831515021790555050565b6000600260009054906101000a900460ff16610707576040517f08c379a00000000000000000000000000000000000000000000000000000000081526004018080602001828103825260128152602001807f47616d6520646f65736e2774206578697374000000000000000000000000000081525060200191505060405180910390fd5b6000809054906101000a900473ffffffffffffffffffffffffffffffffffffffff16905090565b6000809054906101000a900473ffffffffffffffffffffffffffffffffffffffff1681565b6000806060600260009054906101000a900460ff166107da576040517f08c379a00000000000000000000000000000000000000000000000000000000081526004018080602001828103825260128152602001807f47616d6520646f65736e2774206578697374000000000000000000000000000081525060200191505060405180910390fd5b6000809054906101000a900473ffffffffffffffffffffffffffffffffffffffff1673ffffffffffffffffffffffffffffffffffffffff163373ffffffffffffffffffffffffffffffffffffffff16141561089d576040517f08c379a000000000000000000000000000000000000000000000000000000000815260040180806020018281038252601a8152602001807f4f776e65722063616e6e6f7420706c6179207468652067616d6500000000000081525060200191505060405180910390fd5b600086116108f6576040517f08c379a00000000000000000000000000000000000000000000000000000000081526004018080602001828103825260218152602001806112336021913960400191505060405180910390fd5b671bc16d674ec800008602471015610959576040517f08c379a00000000000000000000000000000000000000000000000000000000081526004018080602001828103825260328152602001806112016032913960400191505060405180910390fd5b610961610fa3565b600360008154811061096f57fe5b90600052602060002001549250600360018154811061098a57fe5b906000526020600020015491508415610a715781831115610a33576040518060400160405280600c81526020017f506c617965722077696e7321000000000000000000000000000000000000000081525090508373ffffffffffffffffffffffffffffffffffffffff166108fc671bc16d674ec8000088029081150290604051600060405180830381858888f19350505050158015610a2d573d6000803e3d6000fd5b50610a6c565b6040518060400160405280600c81526020017f4465616c65722077696e7321000000000000000000000000000000000000000081525090505b610b41565b81831015610b07576040518060400160405280600c81526020017f506c617965722077696e7321000000000000000000000000000000000000000081525090508373ffffffffffffffffffffffffffffffffffffffff166108fc671bc16d674ec8000088029081150290604051600060405180830381858888f19350505050158015610b01573d6000803e3d6000fd5b50610b40565b6040518060400160405280600c81526020017f4465616c65722077696e7321000000000000000000000000000000000000000081525090505b5b610b496110d7565b7ff39e749dbafe8b2a3ed048c7425e8440d4d2b05554c5ce257101f6024090b321336000809054906101000a900473ffffffffffffffffffffffffffffffffffffffff16858560038a610bd1576040518060400160405280600581526020017f736d616c6c000000000000000000000000000000000000000000000000000000815250610c08565b6040518060400160405280600381526020017f62696700000000000000000000000000000000000000000000000000000000008152505b87604051808873ffffffffffffffffffffffffffffffffffffffff1673ffffffffffffffffffffffffffffffffffffffff1681526020018773ffffffffffffffffffffffffffffffffffffffff1673ffffffffffffffffffffffffffffffffffffffff1681526020018681526020018581526020018060200180602001806020018481038452878181548152602001915080548015610cc657602002820191906000526020600020905b815481526020019060010190808311610cb2575b5050848103835286818151815260200191508051906020019080838360005b83811015610d00578082015181840152602081019050610ce5565b50505050905090810190601f168015610d2d5780820380516001836020036101000a031916815260200191505b50848103825285818151815260200191508051906020019080838360005b83811015610d66578082015181840152602081019050610d4b565b50505050905090810190601f168015610d935780820380516001836020036101000a031916815260200191505b509a505050505050505050505060405180910390a193509350939050565b600260009054906101000a900460ff16610e33576040517f08c379a00000000000000000000000000000000000000000000000000000000081526004018080602001828103825260128152602001807f47616d6520646f65736e2774206578697374000000000000000000000000000081525060200191505060405180910390fd5b6000809054906101000a900473ffffffffffffffffffffffffffffffffffffffff1673ffffffffffffffffffffffffffffffffffffffff163373ffffffffffffffffffffffffffffffffffffffff1614610ef5576040517f08c379a00000000000000000000000000000000000000000000000000000000081526004018080602001828103825260158152602001807f4f6e6c79206f776e65722063616e20726574697265000000000000000000000081525060200191505060405180910390fd5b8073ffffffffffffffffffffffffffffffffffffffff166108fc479081150290604051600060405180830381858888f19350505050158015610f3b573d6000803e3d6000fd5b5060008060006101000a81548173ffffffffffffffffffffffffffffffffffffffff021916908373ffffffffffffffffffffffffffffffffffffffff16021790555060006001819055506000600260006101000a81548160ff02191690831515021790555050565b6034604051908082528060200260200182016040528015610fd35781602001602082028038833980820191505090505b5060039080519060200190610fe992919061118e565b506000600190505b6034811161102557806003600183038154811061100a57fe5b90600052602060002001819055508080600101915050610ff1565b5060008090505b60348110156110d45761103d611147565b6004819055506000816034036004548161105357fe5b06820190506003818154811061106557fe5b90600052602060002001546003838154811061107d57fe5b90600052602060002001546003848154811061109557fe5b906000526020600020016000600385815481106110ae57fe5b90600052602060002001600084919050558391905055505050808060010191505061102c565b50565b60004714156111455760008060006101000a81548173ffffffffffffffffffffffffffffffffffffffff021916908373ffffffffffffffffffffffffffffffffffffffff16021790555060006001819055506000600260006101000a81548160ff0219169083151502179055505b565b60006001430340426004546040516020018084815260200183815260200182815260200193505050506040516020818303038152906040528051906020012060001c905090565b8280548282559060005260206000209081019282156111ca579160200282015b828111156111c95782518255916020019190600101906111ae565b5b5090506111d791906111db565b5090565b6111fd91905b808211156111f95760008160009055506001016111e1565b5090565b9056fe4f776e657220646f65736e2774206861766520656e6f7567682062616c616e636520746f20706c6179207468652067616d6542657420616d6f756e74206d7573742062652067726561746572207468616e2030a265627a7a72315820e0b4085f556311ee632dc7cea1a552e540694e89f470fc6f56b27129f047834664736f6c63430005100032",
  "source": "pragma solidity >=0.4.17;\r\n\r\ncontract PokerGame {\r\n    address public owner;\r\n    uint256 private originalBalance;\r\n    bool private exists;\r\n    uint256[] private cards;\r\n    uint256 private randomNumber = 0;\r\n\r\n    event NewGame(\r\n        address player,\r\n        address dealer,\r\n        uint256 playerCard,\r\n        uint256 dealerCard,\r\n        uint256[] cards,\r\n        string big_or_small,\r\n        string result\r\n    );\r\n\r\n    constructor() public {\r\n        owner = address(0);\r\n        exists = false;\r\n        originalBalance = 0;\r\n        randomNumber = _setRandomNumber();\r\n    }\r\n\r\n    function newOwner(uint256 money) external payable {\r\n        require(!exists, \"Game already exists\");\r\n        require(money > 0, \"Money must be greater than 0\");\r\n        owner = msg.sender;\r\n        originalBalance = money;\r\n        exists = true;\r\n    }\r\n\r\n    function retireOwner(address payable ownerAccount) external payable {\r\n        require(exists, \"Game doesn't exist\");\r\n        require(msg.sender == owner, \"Only owner can retire\");\r\n        ownerAccount.transfer(address(this).balance);\r\n        owner = address(0);\r\n        originalBalance = 0;\r\n        exists = false;\r\n    }\r\n\r\n    function getGameStatus() external view returns (bool) {\r\n        return exists;\r\n    }\r\n\r\n    function getOwner() external view returns (address) {\r\n        require(exists, \"Game doesn't exist\");\r\n        return owner;\r\n    }\r\n\r\n    function getEarning() external view returns (int256) {\r\n        require(exists, \"Game doesn't exist\");\r\n        require(msg.sender == owner, \"Only owner can get earning\");\r\n        int256 currentBalance = int256(address(this).balance / 1 ether);\r\n        int256 initialBalance = int256(originalBalance);\r\n        return currentBalance - initialBalance;\r\n    }\r\n\r\n    function getOwnerBalance() external view returns (uint256) {\r\n        require(exists, \"Game doesn't exist\");\r\n        return address(this).balance / 1 ether;\r\n    }\r\n\r\n    function checkBroken() internal {\r\n        if (address(this).balance == 0) {\r\n            owner = address(0);\r\n            originalBalance = 0;\r\n            exists = false;\r\n        }\r\n    }\r\n\r\n    function play(\r\n        uint256 betAmount,\r\n        bool big_or_small,\r\n        address payable playerAccount\r\n    )\r\n        external\r\n        payable\r\n        returns (uint256 playerCard, uint256 dealerCard, string memory result)\r\n    {\r\n        require(exists, \"Game doesn't exist\");\r\n        require(msg.sender != owner, \"Owner cannot play the game\");\r\n        require(betAmount > 0, \"Bet amount must be greater than 0\");\r\n        require(\r\n            address(this).balance >= betAmount * 2 ether,\r\n            \"Owner doesn't have enough balance to play the game\"\r\n        );\r\n\r\n        _shuffle();\r\n\r\n        playerCard = cards[0];\r\n        dealerCard = cards[1];\r\n        if (big_or_small) {\r\n            if (playerCard > dealerCard) {\r\n                result = \"Player wins!\";\r\n                playerAccount.transfer(betAmount * 2 ether);\r\n            } else {\r\n                result = \"Dealer wins!\";\r\n            }\r\n        } else {\r\n            if (playerCard < dealerCard) {\r\n                result = \"Player wins!\";\r\n                playerAccount.transfer(betAmount * 2 ether);\r\n            } else {\r\n                result = \"Dealer wins!\";\r\n            }\r\n        }\r\n\r\n        checkBroken();\r\n\r\n        emit NewGame(\r\n            msg.sender,\r\n            owner,\r\n            playerCard,\r\n            dealerCard,\r\n            cards,\r\n            big_or_small ? \"big\" : \"small\",\r\n            result\r\n        );\r\n    }\r\n\r\n    function _setRandomNumber() internal view returns (uint256) {\r\n        return\r\n            uint256(\r\n                keccak256(\r\n                    abi.encodePacked(\r\n                        blockhash(block.number - 1),\r\n                        block.timestamp,\r\n                        randomNumber\r\n                    )\r\n                )\r\n            );\r\n    }\r\n\r\n    function _shuffle() internal {\r\n        cards = new uint256[](52);\r\n        for (uint256 i = 1; i <= 52; i++) {\r\n            cards[i - 1] = i;\r\n        }\r\n        for (uint256 i = 0; i < 52; i++) {\r\n            randomNumber = _setRandomNumber();\r\n            uint256 j = i + (randomNumber % (52 - i));\r\n            (cards[i], cards[j]) = (cards[j], cards[i]);\r\n        }\r\n    }\r\n}\r\n",
  "sourcePath": "C:\\Users\\oisi\\Desktop\\Dapp\\Poker\\contracts\\PokerGame.sol",
  "compiler": {
    "name": "solc",
    "version": "0.5.16+commit.9c3226ce.Emscripten.clang"
  },
  "schemaVersion": "3.4.16",
  "updatedAt": "2024-06-13T08:33:18.663Z",
  "networkType": "ethereum",
  "devdoc": {
    "methods": {}
  },
  "userdoc": {
    "methods": {}
  }
}